{
  "contractName": "Betting",
  "abi": [
    {
      "constant": true,
      "inputs": [],
      "name": "totalBetsTwo",
      "outputs": [
        {
          "name": "",
          "type": "uint256"
        }
      ],
      "payable": false,
      "stateMutability": "view",
      "type": "function"
    },
    {
      "constant": true,
      "inputs": [],
      "name": "totalBetsOne",
      "outputs": [
        {
          "name": "",
          "type": "uint256"
        }
      ],
      "payable": false,
      "stateMutability": "view",
      "type": "function"
    },
    {
      "constant": true,
      "inputs": [],
      "name": "owner",
      "outputs": [
        {
          "name": "",
          "type": "address"
        }
      ],
      "payable": false,
      "stateMutability": "view",
      "type": "function"
    },
    {
      "constant": true,
      "inputs": [],
      "name": "minimumBet",
      "outputs": [
        {
          "name": "",
          "type": "uint256"
        }
      ],
      "payable": false,
      "stateMutability": "view",
      "type": "function"
    },
    {
      "inputs": [],
      "payable": false,
      "stateMutability": "nonpayable",
      "type": "constructor"
    },
    {
      "constant": false,
      "inputs": [],
      "name": "kill",
      "outputs": [],
      "payable": false,
      "stateMutability": "nonpayable",
      "type": "function"
    },
    {
      "constant": false,
      "inputs": [
        {
          "name": "_team",
          "type": "uint256"
        }
      ],
      "name": "bet",
      "outputs": [],
      "payable": true,
      "stateMutability": "payable",
      "type": "function"
    },
    {
      "constant": false,
      "inputs": [
        {
          "name": "_teamWinner",
          "type": "uint16"
        }
      ],
      "name": "distributePrizes",
      "outputs": [],
      "payable": false,
      "stateMutability": "nonpayable",
      "type": "function"
    },
    {
      "constant": true,
      "inputs": [
        {
          "name": "team",
          "type": "uint256"
        }
      ],
      "name": "getAmount",
      "outputs": [
        {
          "name": "",
          "type": "uint256"
        }
      ],
      "payable": false,
      "stateMutability": "view",
      "type": "function"
    }
  ],
  "bytecode": "0x608060405234801561001057600080fd5b50336000806101000a81548173ffffffffffffffffffffffffffffffffffffffff021916908373ffffffffffffffffffffffffffffffffffffffff16021790555064e8d4a51000600181905550610b8e8061006c6000396000f3fe608060405260043610610088576000357c01000000000000000000000000000000000000000000000000000000009004806341c0e1b51461008d5780635bf6b19f146100a45780637365870b146100cf5780637904f688146100fd5780638afadeb51461013c5780638da5cb5b146101675780639980ec86146101be578063c38a8afd1461020d575b600080fd5b34801561009957600080fd5b506100a2610238565b005b3480156100b057600080fd5b506100b9610336565b6040518082815260200191505060405180910390f35b6100fb600480360360208110156100e557600080fd5b810190808035906020019092919050505061033c565b005b34801561010957600080fd5b5061013a6004803603602081101561012057600080fd5b81019080803561ffff169060200190929190505050610481565b005b34801561014857600080fd5b506101516106a9565b6040518082815260200191505060405180910390f35b34801561017357600080fd5b5061017c6106af565b604051808273ffffffffffffffffffffffffffffffffffffffff1673ffffffffffffffffffffffffffffffffffffffff16815260200191505060405180910390f35b3480156101ca57600080fd5b506101f7600480360360208110156101e157600080fd5b81019080803590602001909291905050506106d4565b6040518082815260200191505060405180910390f35b34801561021957600080fd5b506102226106f4565b6040518082815260200191505060405180910390f35b6000809054906101000a900473ffffffffffffffffffffffffffffffffffffffff1673ffffffffffffffffffffffffffffffffffffffff163373ffffffffffffffffffffffffffffffffffffffff161415156102fc576040517f08c379a00000000000000000000000000000000000000000000000000000000081526004018080602001828103825260158152602001807f596f7520617265206e6f7420746865206f776e6572000000000000000000000081525060200191505060405180910390fd5b6000809054906101000a900473ffffffffffffffffffffffffffffffffffffffff1673ffffffffffffffffffffffffffffffffffffffff16ff5b60035481565b610345336106fa565b15151561035157600080fd5b600154341015151561036257600080fd5b60018114806103715750600281145b151561037c57600080fd5b6040805190810160405280348152602001828152506103ee60003373ffffffffffffffffffffffffffffffffffffffff1673ffffffffffffffffffffffffffffffffffffffff16815260200190815260200160002060008201518160000155602082015181600101559050506103ed3390806001815401808255809150509060018203906000526020600020016000909192909190916101000a81548173ffffffffffffffffffffffffffffffffffffffff021916908373ffffffffffffffffffffffffffffffffffffffff16021790555050600181141561046d573460026000828254019250508190555061047e565b346003600082825401925050819055505b50565b6000809054906101000a900473ffffffffffffffffffffffffffffffffffffffff1673ffffffffffffffffffffffffffffffffffffffff163373ffffffffffffffffffffffffffffffffffffffff16141515610545576040517f08c379a00000000000000000000000000000000000000000000000000000000081526004018080602001828103825260158152602001807f596f7520617265206e6f7420746865206f776e6572000000000000000000000081525060200191505060405180910390fd5b60008090505b6103ed80549050811015610690578161ffff166103ee60006103ed8481548110151561057357fe5b9060005260206000200160009054906101000a900473ffffffffffffffffffffffffffffffffffffffff1673ffffffffffffffffffffffffffffffffffffffff1673ffffffffffffffffffffffffffffffffffffffff168152602001908152602001600020600101541415610683576103ed818154811015156105f257fe5b9060005260206000200160009054906101000a900473ffffffffffffffffffffffffffffffffffffffff1660046103ec546103e88110151561063057fe5b0160006101000a81548173ffffffffffffffffffffffffffffffffffffffff021916908373ffffffffffffffffffffffffffffffffffffffff1602179055506103ec600081548092919060010191905055505b808060010191505061054b565b5061069e8161ffff166107a0565b6106a6610a37565b50565b60025481565b6000809054906101000a900473ffffffffffffffffffffffffffffffffffffffff1681565b600060018214156106e95760025490506106ef565b60035490505b919050565b60015481565b600080600090505b6103ed80549050811015610795578273ffffffffffffffffffffffffffffffffffffffff166103ed8281548110151561073757fe5b9060005260206000200160009054906101000a900473ffffffffffffffffffffffffffffffffffffffff1673ffffffffffffffffffffffffffffffffffffffff16141561078857600191505061079b565b8080600101915050610702565b50600090505b919050565b6000809054906101000a900473ffffffffffffffffffffffffffffffffffffffff1673ffffffffffffffffffffffffffffffffffffffff163373ffffffffffffffffffffffffffffffffffffffff16141515610864576040517f08c379a00000000000000000000000000000000000000000000000000000000081526004018080602001828103825260158152602001807f596f7520617265206e6f7420746865206f776e6572000000000000000000000081525060200191505060405180910390fd5b600080600183141561087f576003549150600254905061088a565b600254915060035490505b60008090505b6103ec54811015610a3057600073ffffffffffffffffffffffffffffffffffffffff166004826103e8811015156108c357fe5b0160009054906101000a900473ffffffffffffffffffffffffffffffffffffffff1673ffffffffffffffffffffffffffffffffffffffff16141561090957505050610a34565b60006103ee60006004846103e88110151561092057fe5b0160009054906101000a900473ffffffffffffffffffffffffffffffffffffffff1673ffffffffffffffffffffffffffffffffffffffff1673ffffffffffffffffffffffffffffffffffffffff16815260200190815260200160002060000154905060006103e8846103e8870281151561099657fe5b046103e80183028115156109a657fe5b0490506004836103e8811015156109b957fe5b0160009054906101000a900473ffffffffffffffffffffffffffffffffffffffff1673ffffffffffffffffffffffffffffffffffffffff166108fc829081150290604051600060405180830381858888f19350505050158015610a20573d6000803e3d6000fd5b5050508080600101915050610890565b5050505b50565b6000809054906101000a900473ffffffffffffffffffffffffffffffffffffffff1673ffffffffffffffffffffffffffffffffffffffff163373ffffffffffffffffffffffffffffffffffffffff16141515610afb576040517f08c379a00000000000000000000000000000000000000000000000000000000081526004018080602001828103825260158152602001807f596f7520617265206e6f7420746865206f776e6572000000000000000000000081525060200191505060405180910390fd5b6103ed6000610b0a9190610b1c565b60006002819055506000600381905550565b5080546000825590600052602060002090810190610b3a9190610b3d565b50565b610b5f91905b80821115610b5b576000816000905550600101610b43565b5090565b9056fea165627a7a72305820a883d4f6c96fe7d451315f6aa54551335d3d8463d1d30e584b5f3e0bee960fc00029",
  "source": "// SPDX-License-Identifier: MIT\r\npragma solidity >=0.4.0 <=0.8.0;\r\n\r\ncontract Betting {\r\n    address payable public owner;\r\n    uint public minimumBet;\r\n    uint public totalBetsOne;\r\n    uint public totalBetsTwo;\r\n    \r\n    address payable[1000] winners;\r\n    uint count;\r\n    \r\n    struct Player {\r\n        uint amountBet;\r\n        uint teamSelected;\r\n    }\r\n    \r\n    address payable[] players;\r\n    mapping(address => Player) playerInfo;\r\n    \r\n    modifier onlyOwner {\r\n        require (msg.sender == owner, \"You are not the owner\");\r\n        _;\r\n    }\r\n    \r\n    constructor() public{\r\n        owner = msg.sender;\r\n        minimumBet = 1000000000000;  //0.01 eth;\r\n    }\r\n    \r\n    // this function kill the constract\r\n    function kill() public onlyOwner {\r\n        selfdestruct(owner);\r\n    }\r\n    \r\n    // this function check if an address already place a bet\r\n    function checkPlayerExist(address _player) private view returns (bool){\r\n        for (uint i=0; i<players.length; i++){\r\n            if (players[i] == _player) return true;\r\n        }\r\n        return false;\r\n       \r\n    }\r\n    \r\n    function bet(uint _team) public payable {\r\n        require(!checkPlayerExist(msg.sender));\r\n        require(msg.value >= minimumBet);\r\n        require(_team == 1 || _team == 2);\r\n        playerInfo[msg.sender] = Player(msg.value, _team);\r\n        players.push(msg.sender);\r\n        if(_team == 1){\r\n            totalBetsOne += msg.value;\r\n        } else {\r\n            totalBetsTwo += msg.value;\r\n        }\r\n    }\r\n    \r\n    function distributePrizes(uint16 _teamWinner) public onlyOwner{\r\n        for (uint i=0; i<players.length; i++) {\r\n            if(playerInfo[players[i]].teamSelected == _teamWinner){\r\n                winners[count] = players[i];\r\n                count++;\r\n            }\r\n        }\r\n        transferWinnings(_teamWinner);\r\n        resetGame();\r\n    }\r\n    \r\n    function transferWinnings(uint _teamWinner) private onlyOwner {\r\n        uint loserBet;\r\n        uint winnerBet;\r\n        \r\n        if (_teamWinner == 1){\r\n            loserBet = totalBetsTwo;\r\n            winnerBet = totalBetsOne;\r\n        } else {\r\n            loserBet = totalBetsOne;\r\n            winnerBet = totalBetsTwo;\r\n        }\r\n        \r\n        for (uint i=0; i<count; i++){\r\n            if(winners[i] == address(0)) return;\r\n            uint amountBet = playerInfo[winners[i]].amountBet;\r\n            uint prize = amountBet*(1000+(loserBet*1000/winnerBet))/1000;\r\n            \r\n            // TRANSFER Winning price to user\r\n            winners[i].transfer(prize);\r\n        }\r\n        \r\n    }\r\n    \r\n    function resetGame() private onlyOwner {\r\n        delete players;\r\n        totalBetsOne = 0;\r\n        totalBetsTwo = 0;\r\n    }\r\n    \r\n    function getAmount(uint team) public view returns (uint) {\r\n        if (team == 1) return totalBetsOne;\r\n        return totalBetsTwo;\r\n    }\r\n}",
  "sourcePath": "C:/Users/georg/Desktop/Code/BlockChain/betting/contracts/Betting.sol",
  "compiler": {
    "name": "solc",
    "version": "0.5.1+commit.c8a2cb62.Emscripten.clang"
  },
  "schemaVersion": "3.3.2",
  "updatedAt": "2021-01-09T16:18:34.501Z",
  "networkType": "ethereum",
  "devdoc": {
    "methods": {}
  },
  "userdoc": {
    "methods": {}
  }
}