{
  "contractName": "Betting",
  "abi": [
    {
      "constant": true,
      "inputs": [],
      "name": "totalBetsTwo",
      "outputs": [
        {
          "name": "",
          "type": "uint256"
        }
      ],
      "payable": false,
      "stateMutability": "view",
      "type": "function"
    },
    {
      "constant": true,
      "inputs": [],
      "name": "totalBetsOne",
      "outputs": [
        {
          "name": "",
          "type": "uint256"
        }
      ],
      "payable": false,
      "stateMutability": "view",
      "type": "function"
    },
    {
      "constant": true,
      "inputs": [],
      "name": "owner",
      "outputs": [
        {
          "name": "",
          "type": "address"
        }
      ],
      "payable": false,
      "stateMutability": "view",
      "type": "function"
    },
    {
      "constant": true,
      "inputs": [],
      "name": "minimumBet",
      "outputs": [
        {
          "name": "",
          "type": "uint256"
        }
      ],
      "payable": false,
      "stateMutability": "view",
      "type": "function"
    },
    {
      "inputs": [],
      "payable": false,
      "stateMutability": "nonpayable",
      "type": "constructor"
    },
    {
      "constant": false,
      "inputs": [],
      "name": "kill",
      "outputs": [],
      "payable": false,
      "stateMutability": "nonpayable",
      "type": "function"
    },
    {
      "constant": false,
      "inputs": [
        {
          "name": "_team",
          "type": "uint256"
        }
      ],
      "name": "bet",
      "outputs": [],
      "payable": true,
      "stateMutability": "payable",
      "type": "function"
    },
    {
      "constant": false,
      "inputs": [
        {
          "name": "_teamWinner",
          "type": "uint16"
        }
      ],
      "name": "distributePrizes",
      "outputs": [],
      "payable": false,
      "stateMutability": "nonpayable",
      "type": "function"
    },
    {
      "constant": true,
      "inputs": [],
      "name": "getAmountOne",
      "outputs": [
        {
          "name": "",
          "type": "uint256"
        }
      ],
      "payable": false,
      "stateMutability": "view",
      "type": "function"
    },
    {
      "constant": true,
      "inputs": [],
      "name": "getAmountTwo",
      "outputs": [
        {
          "name": "",
          "type": "uint256"
        }
      ],
      "payable": false,
      "stateMutability": "view",
      "type": "function"
    }
  ],
  "bytecode": "0x608060405234801561001057600080fd5b50336000806101000a81548173ffffffffffffffffffffffffffffffffffffffff021916908373ffffffffffffffffffffffffffffffffffffffff16021790555064e8d4a510006001819055506109f08061006c6000396000f3fe608060405260043610610093576000357c01000000000000000000000000000000000000000000000000000000009004806341c0e1b5146100985780635bf6b19f146100af5780637365870b146100da5780637904f688146101085780638afadeb5146101475780638da5cb5b14610172578063c3840d1c146101c9578063c38a8afd146101f4578063c55921c71461021f575b600080fd5b3480156100a457600080fd5b506100ad61024a565b005b3480156100bb57600080fd5b506100c46102df565b6040518082815260200191505060405180910390f35b610106600480360360208110156100f057600080fd5b81019080803590602001909291905050506102e5565b005b34801561011457600080fd5b506101456004803603602081101561012b57600080fd5b81019080803561ffff16906020019092919050505061042a565b005b34801561015357600080fd5b5061015c6105e9565b6040518082815260200191505060405180910390f35b34801561017e57600080fd5b506101876105ef565b604051808273ffffffffffffffffffffffffffffffffffffffff1673ffffffffffffffffffffffffffffffffffffffff16815260200191505060405180910390f35b3480156101d557600080fd5b506101de610614565b6040518082815260200191505060405180910390f35b34801561020057600080fd5b5061020961061e565b6040518082815260200191505060405180910390f35b34801561022b57600080fd5b50610234610624565b6040518082815260200191505060405180910390f35b6000809054906101000a900473ffffffffffffffffffffffffffffffffffffffff1673ffffffffffffffffffffffffffffffffffffffff163373ffffffffffffffffffffffffffffffffffffffff161415156102a557600080fd5b6000809054906101000a900473ffffffffffffffffffffffffffffffffffffffff1673ffffffffffffffffffffffffffffffffffffffff16ff5b60035481565b6102ee3361062e565b1515156102fa57600080fd5b600154341015151561030b57600080fd5b600181148061031a5750600281145b151561032557600080fd5b6040805190810160405280348152602001828152506103ee60003373ffffffffffffffffffffffffffffffffffffffff1673ffffffffffffffffffffffffffffffffffffffff16815260200190815260200160002060008201518160000155602082015181600101559050506103ed3390806001815401808255809150509060018203906000526020600020016000909192909190916101000a81548173ffffffffffffffffffffffffffffffffffffffff021916908373ffffffffffffffffffffffffffffffffffffffff1602179055505060018114156104165734600260008282540192505081905550610427565b346003600082825401925050819055505b50565b6000809054906101000a900473ffffffffffffffffffffffffffffffffffffffff1673ffffffffffffffffffffffffffffffffffffffff163373ffffffffffffffffffffffffffffffffffffffff1614151561048557600080fd5b60008090505b6103ed805490508110156105d0578161ffff166103ee60006103ed848154811015156104b357fe5b9060005260206000200160009054906101000a900473ffffffffffffffffffffffffffffffffffffffff1673ffffffffffffffffffffffffffffffffffffffff1673ffffffffffffffffffffffffffffffffffffffff1681526020019081526020016000206001015414156105c3576103ed8181548110151561053257fe5b9060005260206000200160009054906101000a900473ffffffffffffffffffffffffffffffffffffffff1660046103ec546103e88110151561057057fe5b0160006101000a81548173ffffffffffffffffffffffffffffffffffffffff021916908373ffffffffffffffffffffffffffffffffffffffff1602179055506103ec600081548092919060010191905055505b808060010191505061048b565b506105de8161ffff166106d4565b6105e6610902565b50565b60025481565b6000809054906101000a900473ffffffffffffffffffffffffffffffffffffffff1681565b6000600254905090565b60015481565b6000600354905090565b600080600090505b6103ed805490508110156106c9578273ffffffffffffffffffffffffffffffffffffffff166103ed8281548110151561066b57fe5b9060005260206000200160009054906101000a900473ffffffffffffffffffffffffffffffffffffffff1673ffffffffffffffffffffffffffffffffffffffff1614156106bc5760019150506106cf565b8080600101915050610636565b50600090505b919050565b6000809054906101000a900473ffffffffffffffffffffffffffffffffffffffff1673ffffffffffffffffffffffffffffffffffffffff163373ffffffffffffffffffffffffffffffffffffffff1614151561072f57600080fd5b600080600183141561074a5760035491506002549050610755565b600254915060035490505b60008090505b6103ec548110156108fb57600073ffffffffffffffffffffffffffffffffffffffff166004826103e88110151561078e57fe5b0160009054906101000a900473ffffffffffffffffffffffffffffffffffffffff1673ffffffffffffffffffffffffffffffffffffffff1614156107d4575050506108ff565b60006103ee60006004846103e8811015156107eb57fe5b0160009054906101000a900473ffffffffffffffffffffffffffffffffffffffff1673ffffffffffffffffffffffffffffffffffffffff1673ffffffffffffffffffffffffffffffffffffffff16815260200190815260200160002060000154905060006103e8846103e8870281151561086157fe5b046103e801830281151561087157fe5b0490506004836103e88110151561088457fe5b0160009054906101000a900473ffffffffffffffffffffffffffffffffffffffff1673ffffffffffffffffffffffffffffffffffffffff166108fc829081150290604051600060405180830381858888f193505050501580156108eb573d6000803e3d6000fd5b505050808060010191505061075b565b5050505b50565b6000809054906101000a900473ffffffffffffffffffffffffffffffffffffffff1673ffffffffffffffffffffffffffffffffffffffff163373ffffffffffffffffffffffffffffffffffffffff1614151561095d57600080fd5b6103ed600061096c919061097e565b60006002819055506000600381905550565b508054600082559060005260206000209081019061099c919061099f565b50565b6109c191905b808211156109bd5760008160009055506001016109a5565b5090565b9056fea165627a7a723058201e88154ca62375d2daa251ba9d539acebc8a5b721e4695e23cf1c42c7a7c9faa0029",
  "source": "// SPDX-License-Identifier: MIT\r\npragma solidity >=0.4.0 <=0.8.0;\r\n\r\ncontract Betting {\r\n    address payable public owner;\r\n    uint public minimumBet;\r\n    uint public totalBetsOne;\r\n    uint public totalBetsTwo;\r\n    \r\n    address payable[1000] winners;\r\n    uint count;\r\n    \r\n    struct Player {\r\n        uint amountBet;\r\n        uint teamSelected;\r\n    }\r\n    \r\n    address payable[] players;\r\n    mapping(address => Player) playerInfo;\r\n    \r\n    modifier onlyOwner {\r\n        require (msg.sender == owner);\r\n        _;\r\n    }\r\n    \r\n    constructor() public{\r\n        owner = msg.sender;\r\n        minimumBet = 1000000000000;  //0.01 eth;\r\n    }\r\n    \r\n    // this function kill the constract\r\n    function kill() public onlyOwner {\r\n        selfdestruct(owner);\r\n    }\r\n    \r\n    // this function check if an address already place a bet\r\n    function checkPlayerExist(address _player) private view returns (bool){\r\n        for (uint i=0; i<players.length; i++){\r\n            if (players[i] == _player) return true;\r\n        }\r\n        return false;\r\n       \r\n    }\r\n    \r\n    function bet(uint _team) public payable {\r\n        require(!checkPlayerExist(msg.sender));\r\n        require(msg.value >= minimumBet);\r\n        require(_team == 1 || _team == 2);\r\n        playerInfo[msg.sender] = Player(msg.value, _team);\r\n        players.push(msg.sender);\r\n        if(_team == 1){\r\n            totalBetsOne += msg.value;\r\n        } else {\r\n            totalBetsTwo += msg.value;\r\n        }\r\n    }\r\n    \r\n    function distributePrizes(uint16 _teamWinner) public onlyOwner{\r\n        for (uint i=0; i<players.length; i++) {\r\n            if(playerInfo[players[i]].teamSelected == _teamWinner){\r\n                winners[count] = players[i];\r\n                count++;\r\n            }\r\n        }\r\n        transferWinnings(_teamWinner);\r\n        resetGame();\r\n    }\r\n    \r\n    function transferWinnings(uint _teamWinner) private onlyOwner {\r\n        uint loserBet;\r\n        uint winnerBet;\r\n        \r\n        if (_teamWinner == 1){\r\n            loserBet = totalBetsTwo;\r\n            winnerBet = totalBetsOne;\r\n        } else {\r\n            loserBet = totalBetsOne;\r\n            winnerBet = totalBetsTwo;\r\n        }\r\n        \r\n        for (uint i=0; i<count; i++){\r\n            if(winners[i] == address(0)) return;\r\n            uint amountBet = playerInfo[winners[i]].amountBet;\r\n            uint prize = amountBet*(1000+(loserBet*1000/winnerBet))/1000;\r\n            \r\n            // TRANSFER Winning price to user\r\n            winners[i].transfer(prize);\r\n        }\r\n        \r\n    }\r\n    \r\n    function resetGame() private onlyOwner {\r\n        delete players;\r\n        totalBetsOne = 0;\r\n        totalBetsTwo = 0;\r\n    }\r\n    \r\n    function getAmountOne() public view returns (uint) {\r\n        return totalBetsOne;\r\n    }\r\n    \r\n    function getAmountTwo() public view returns (uint) {\r\n        return totalBetsTwo;\r\n    }\r\n}",
  "sourcePath": "C:/Users/georg/Desktop/Code/BlockChain/betting/contracts/Betting.sol",
  "compiler": {
    "name": "solc",
    "version": "0.5.1+commit.c8a2cb62.Emscripten.clang"
  },
  "schemaVersion": "3.3.2",
  "updatedAt": "2021-01-07T07:44:42.247Z",
  "networkType": "ethereum",
  "devdoc": {
    "methods": {}
  },
  "userdoc": {
    "methods": {}
  }
}